:020000040800F2
:1000000000280020A11A0008091800080F1800088D
:10001000151800081B18000821180008000000002F
:100020000000000000000000000000002718000889
:1000300033180008000000003F1800084B180008A3
:10004000E91A0008E91A0008E91A0008E91A000884
:10005000E91A0008E91A0008E91A0008E91A000874
:10006000E91A0008E91A0008E91A0008E91A000864
:10007000E91A0008E91A0008E91A0008E91A000854
:10008000E91A0008E91A0008E91A0008E91A000844
:10009000E91A0008E91A0008E91A0008E91A000834
:1000A000E91A0008E91A0008E91A0008E91A000824
:1000B00059180008E91A000800000000E91A0008B1
:1000C000E91A00080000000000000000E91A00081A
:1000D00000000000E91A0008E91A0008000000000A
:1000E000E91A0008E91A0008E91A000800000000EF
:1000F0000000000000000000000000000000000000
:0C01000000000000000000005FF808F1A3
:10010C0010B5054C237833B9044B13B10448AFF345
:10011C0000800123237010BD7C0000200000000033
:10012C001831000808B5034B1BB103490348AFF362
:10013C00008008BD0000000080000020183100087D
:10014C0080B483B000AF7860044A7B68012142F828
:10015C00231000BF0C37BD4680BC704798000020B0
:10016C0080B483B000AF7860094A7B6852F82330C2
:10017C00012B06D1064A7B68002142F8231001238B
:10018C0000E0002318460C37BD4680BC704700BF0A
:10019C009800002080B582B000AF00237B6077E030
:1001AC003F4A7B6852F823203E497B6841F8232064
:1001BC003D4A7B6852F8232039497B6841F823205B
:1001CC003A4A7B6852F8232039497B6851F823302E
:1001DC009BB21946104601F06DFF03461946324A90
:1001EC007B6842F823102F4A7B6852F823202C4955
:1001FC007B6851F823309A4247D1294A7B6852F8E0
:10020C00232029497B6851F823309A423DD1294A51
:10021C007B6852F8232024497B6851F823309A429A
:10022C0016D0214A7B6852F8232022497B6841F87A
:10023C0023201D4A7B6852F82330002B25D1786887
:10024C00FFF77EFF1C4A7B68C82142F823101CE094
:10025C00194A7B6852F823305A1E17497B6841F8BB
:10026C002320154A7B6852F82330002B0DDC0E4AF4
:10027C007B6852F82330002B02D17868FFF760FFBF
:10028C000D4A7B68C82142F823107B6801337B60E0
:10029C007B68022B84DD00BF00BF0837BD4680BDE4
:1002AC000C00002000000020180000204800002056
:1002BC003C0000202400002030000020B0B500AF2E
:1002CC00824B1B68013B042B00F2F28201A252F814
:1002DC0023F000BFF502000895030008F5040008A0
:1002EC002B0600088907000800F0DCFD774B022282
:1002FC001A60774B1B68774A1360774B1B68774AF9
:10030C001360744B1B68764A82FB03129210DB1746
:10031C00D41A704B1A68724B83FB02139910D317C3
:10032C00C91A0B469B000B445B00D11A6B4B1B6824
:10033C006B4A82FB03029210DB17D51A674B1A68C3
:10034C00674B83FB02039810D317C01A03469B001C
:10035C0003445B00D01A03462A46204601F00AF8F3
:10036C005D4B1B684FF47A7202FB03F319460120B4
:10037C0001F084F94FF47A71022001F07FF9FA212F
:10038C00052001F07BF99CE2142001F00DF802200D
:10039C0001F094F90346002B3DD04FF47A71022002
:1003AC0001F06CF94B4B1B68013B4A4A13604B4BF9
:1003BC001B68013B494A1360464B1B68484A82FB49
:1003CC0003129210DB17D41A424B1A68444B83FB6E
:1003DC0002139910D317C91A0B469B000B445B00F0
:1003EC00D11A3E4B1B683E4A82FB03029210DB176C
:1003FC00D51A3A4B1A683A4B83FB02039810D31761
:10040C00C01A03469B0003445B00D01A03462A46DD
:10041C00204600F0AFFF012001F050F90346002BFD
:10042C0049D02A4B03221A60294B1A682A4B1B68A5
:10043C00D31A4FF47A7202FB03F31946012001F030
:10044C001DF9234B1A68244B1B68D31A214A1360DD
:10045C00244B1B68214A13601E4B1B68204A82FBED
:10046C0003129210DB17D41A1A4B1A681C4B83FB1D
:10047C0002139910D317C91A0B469B000B445B004F
:10048C00D11A164B1B68164A82FB03029210DB171B
:10049C00D51A124B1A68124B83FB02039810D31710
:1004AC00C01A03469B0003445B00D01A03462A463D
:1004BC00204600F05FFF0020FFF752FE0346002BA2
:1004CC0000F0F88100F00CFAF4E100BFA800002065
:1004DC0054000020B00000205C000020B40000207C
:1004EC006766666658000020152000F05DFF02204C
:1004FC0001F0E4F80346002B3DD04FF47A71022052
:10050C0001F0BCF8964B1B68013B954A1360954B68
:10051C001B68013B934A1360914B1B68924A82FB08
:10052C0003129210DB17D41A8D4B1A688E4B83FB77
:10053C0002139910D317C91A0B469B000B445B008E
:10054C00D11A884B1B68884A82FB03029210DB1776
:10055C00D51A844B1A68844B83FB02039810D3176B
:10056C00C01A03469B0003445B00D01A03462A467C
:10057C00204600F0FFFE012001F0A0F80346002BFE
:10058C0043D07A4B04221A60794B1B684FF47A7271
:10059C0002FB03F31946012001F070F8754B1B6840
:1005AC006F4A1360724B1B686E4A13606C4B1B686E
:1005BC006D4A82FB03129210DB17D41A684B1A682F
:1005CC00694B83FB02139910D317C91A0B469B0076
:1005DC000B445B00D11A634B1B68634A82FB03021A
:1005EC009210DB17D51A5F4B1A685F4B83FB020323
:1005FC009810D317C01A03469B0003445B00D01A13
:10060C0003462A46204600F0B5FE0020FFF7A8FD61
:10061C000346002B00F0508100F062F94CE11620EB
:10062C0000F0C2FE022001F049F80346002B3DD039
:10063C004FF47A71022001F021F8494B1B68013B01
:10064C00474A1360474B1B68013B464A1360444BB7
:10065C001B68454A82FB03129210DB17D41A404BDD
:10066C001A68414B83FB02139910D317C91A0B4616
:10067C009B000B445B00D11A3A4B1B683A4A82FB35
:10068C0003029210DB17D51A364B1A68364B83FBD4
:10069C0002039810D317C01A03469B0003445B0057
:1006AC00D01A03462A46204600F064FE012001F0D1
:1006BC0005F80346002B49D02C4B05221A602D4B14
:1006CC001A682B4B1B68D31A4FF47A7202FB03F394
:1006DC001946012000F0D2FF264B1A68244B1B68E8
:1006EC00D31A1F4A1360244B1B681E4A13601C4B01
:1006FC001B681D4A82FB03129210DB17D41A184B8D
:10070C001A68194B83FB02139910D317C91A0B469D
:10071C009B000B445B00D11A124B1B68124A82FBE4
:10072C0003029210DB17D51A0E4B1A680E4B83FB83
:10073C0002039810D317C01A03469B0003445B00B6
:10074C00D01A03462A46204600F014FE0020FFF77C
:10075C0007FD0346002B00F0B18000F0C1F8ADE0BE
:10076C00B0000020B400002067666666A800002078
:10077C005C0000205400002058000020172000F0DE
:10078C0013FE022000F09AFF0346002B3DD04FF4DD
:10079C007A71022000F072FF4B4B1B68013B4A4AF6
:1007AC0013604A4B1B68013B484A1360464B1B685D
:1007BC00474A82FB03129210DB17D41A424B1A6879
:1007CC00434B83FB02139910D317C91A0B469B009A
:1007DC000B445B00D11A3D4B1B683D4A82FB030264
:1007EC009210DB17D51A394B1A68394B83FB02036D
:1007FC009810D317C01A03469B0003445B00D01A11
:10080C0003462A46204600F0B5FD012000F056FFB5
:10081C000346002B43D02F4B02221A602E4B1B6831
:10082C004FF47A7202FB03F31946012000F026FF05
:10083C002A4B1B68244A1360274B1B68234A1360FE
:10084C00214B1B68224A82FB03129210DB17D41A2D
:10085C001D4B1A681E4B83FB02139910D317C91A30
:10086C000B469B000B445B00D11A184B1B68184AB3
:10087C0082FB03029210DB17D51A144B1A68144B27
:10088C0083FB02039810D317C01A03469B00034442
:10089C005B00D01A03462A46204600F06BFD002070
:1008AC00FFF75EFC0346002B0AD000F019F807E0B6
:1008BC0000BF06E000BF04E000BF02E000BF00E0A4
:1008CC0000BF00BFB0BD00BFB0000020B4000020CE
:1008DC0067666666A80000205C00002054000020BB
:1008EC0080B500AF184B0A221A60184B1B68184AC7
:1008FC0013604FF47A71022000F0C0FEFA2104203C
:10090C0000F0BCFE124B1B68124A82FB03129210C1
:10091C00DB17D01A0E4B1A680E4B83FB021399107F
:10092C00D317C91A0B469B000B445B00D11A084B1A
:10093C001B68084A82FB03C29210DB17D21A0223EF
:10094C0000F018FD00BF80BDA8000020540000205E
:10095C00B00000206766666680B500AF184B0B22AE
:10096C001A60184B1B68184A13604FF47A710220F6
:10097C0000F084FEFA21042000F080FE124B1B686C
:10098C00124A82FB03129210DB17D01A0E4B1A6814
:10099C000E4B83FB02139910D317C91A0B469B00FD
:1009AC000B445B00D11A084B1B68084A82FB03C23C
:1009BC009210DB17D21A032300F0DCFC00BF80BDC1
:1009CC00A800002058000020B00000206766666672
:1009DC0080B500AF184B0C221A60184B1B68184AD4
:1009EC0013604FF47A71022000F048FEFA210420C3
:1009FC0000F044FE124B1B68124A82FB0312921049
:100A0C00DB17D01A0E4B1A680E4B83FB021399108E
:100A1C00D317C91A0B469B000B445B00D11A084B29
:100A2C001B68084A82FB03C29210DB17D21A0423FC
:100A3C0000F0A0FC00BF80BDA80000205C000020DE
:100A4C00B00000206766666680B500AFAF4B1B68D0
:100A5C000A3B052B00F2088201A252F823F000BFDA
:100A6C00850A0008D50B0008350D0008410B00085D
:100A7C00830C0008E30D00080A2000F095FC02200E
:100A8C0000F01CFE0346002B24D04FF47A71022098
:100A9C0000F0F4FD9E4B1B689E4A82FB03129210E1
:100AAC00DB17D01A9A4B1A689A4B83FB02139910D6
:100ABC00D317C91A0B469B000B445B00D11A944BFD
:100ACC001B68944A82FB03C29210DB17D21A0223D2
:100ADC0000F050FC0020FFF743FB0346002B01D035
:100AEC00FFF73AFF0120FFF73BFB0346002B00F01A
:100AFC00BD81864B0D221A60874B1B68874A136099
:100B0C00864B1B68834A82FB03129210DB17D01AA8
:100B1C00824B1A687F4B83FB02139910D317C91AA7
:100B2C000B469B000B445B00D11A0223002200F001
:100B3C0021FC9BE10A2000F037FC0020FFF710FBA2
:100B4C000346002B02D0714B0A221A600120FFF7DA
:100B5C0007FB0346002B24D0704B1B6801336F4AF4
:100B6C0013606E4B1B68632B02DD6C4B01221A6009
:100B7C006A4B1B68674A82FB03129210DB17D01A70
:100B8C00664B1A68634B83FB02139910D317C91A6F
:100B9C000B469B000B445B00D11A0223002200F091
:100BAC00E9FB0220FFF7DCFA0346002B00F0608122
:100BBC005A4B1B68584A1360574B1A68584B1B68A2
:100BCC00D31A584A136053E10B2000F0EDFB0220BE
:100BDC0000F074FD0346002B1DD04FF47A710220F7
:100BEC0000F04CFD4A4B1B684A4A82FB03129210E0
:100BFC00DB17D01A464B1A68464B83FB021399102D
:100C0C00D317C91A0B469B000B445B00D11A032364
:100C1C00002200F0AFFB0020FFF7A2FA0346002BE6
:100C2C0001D0FFF7D5FE0120FFF79AFA0346002BFF
:100C3C0000F02081354B0E221A60394B1B68374A65
:100C4C001360364B1B68334A82FB03129210DB177E
:100C5C00D01A324B1A682F4B83FB02139910D317FF
:100C6C00C91A0B469B000B445B00D11A03230022CC
:100C7C0000F080FBFEE00B2000F096FB0020FFF75D
:100C8C006FFA0346002B02D0204B0B221A60012076
:100C9C00FFF766FA0346002B24D0204B1B68013368
:100CAC001E4A13601D4B1B68632B02DD1B4B01227C
:100CBC001A601A4B1B68174A82FB03129210DB173F
:100CCC00D01A164B1A68134B83FB02139910D317C7
:100CDC00C91A0B469B000B445B00D11A032300225C
:100CEC0000F048FB0220FFF73BFA0346002B00F014
:100CFC00C3800A4B1B680A4A1360074B1A68084BDF
:100D0C001B68D31A074A1360B6E000BFA800002086
:100D1C00B00000206766666654000020A400002026
:100D2C00580000205C0000200C2000F03DFB02204D
:100D3C0000F0C4FC0346002B1DD04FF47A71022046
:100D4C0000F09CFC504B1B68504A82FB0312921023
:100D5C00DB17D01A4C4B1A684C4B83FB02139910BF
:100D6C00D317C91A0B469B000B445B00D11A042302
:100D7C00002200F0FFFA0020FFF7F2F90346002BE7
:100D8C0002D0434B01221A600120FFF7E9F9034618
:100D9C00002B73D03E4B0F221A603E4B1B683E4A11
:100DAC0013603D4B1B68394A82FB03129210DB1710
:100DBC00D01A394B1A68354B83FB02139910D31791
:100DCC00C91A0B469B000B445B00D11A042300226A
:100DDC0000F0D0FA52E00C2000F0E6FA0020FFF709
:100DEC00BFF90346002B02D0294B0C221A600120BC
:100DFC00FFF7B6F90346002B24D0274B1B680133B1
:100E0C00254A1360244B1B68632B02DD224B012205
:100E1C001A60214B1B681D4A82FB03129210DB17D0
:100E2C00D01A1D4B1A68194B83FB02139910D31758
:100E3C00C91A0B469B000B445B00D11A04230022F9
:100E4C0000F098FA0220FFF78BF90346002B17D01D
:100E5C00114B1B680F4A1360104B1A680D4B1B6823
:100E6C00D31A0F4A13600BE000BF0AE000BF08E082
:100E7C0000BF06E000BF04E000BF02E000BF00E0DE
:100E8C0000BF00BF80BD00BFB00000206766666673
:100E9C00A80000205C000020A400002054000020CA
:100EAC005800002080B500AF012201210E4801F04E
:100EBC0018F9012202210C4801F013F90122042136
:100ECC00094801F00EF901220821074801F009F93F
:100EDC0001221021044801F004F9012220210248CA
:100EEC0001F0FFF800BF80BD0008014080B582B062
:100EFC0000AF78607B68002B22D100220121BD4815
:100F0C0001F0EFF800220221BA4801F0EAF80022C1
:100F1C000421B84801F0E5F800220821B54801F099
:100F2C00E0F800221021B34801F0DBF80022202168
:100F3C00B04801F0D6F801224021AE4801F0D1F8BA
:100F4C007B68012B22D101220121AA4801F0C9F8AA
:100F5C0000220221A74801F0C4F800220421A54870
:100F6C0001F0BFF801220821A24801F0BAF80122D1
:100F7C001021A04801F0B5F8012220219D4801F074
:100F8C00B0F8012240219B4801F0ABF87B68022BA2
:100F9C0022D100220121974801F0A3F8002202215E
:100FAC00944801F09EF801220421924801F099F82E
:100FBC00002208218F4801F094F8002210218D485E
:100FCC0001F08FF8012220218A4801F08AF80022D2
:100FDC004021884801F085F87B68032B22D1002240
:100FEC000121844801F07DF800220221814801F0A2
:100FFC0078F8002204217F4801F073F800220821C0
:10100C007C4801F06EF8012210217A4801F069F851
:10101C0001222021774801F064F800224021754814
:10102C0001F05FF87B68042B22D101220121714869
:10103C0001F057F8002202216E4801F052F800220C
:10104C0004216C4801F04DF801220821694801F097
:10105C0048F801221021674801F043F800222021B2
:10106C00644801F03EF800224021624801F039F852
:10107C007B68052B22D1002201215E4801F031F85A
:10108C00012202215B4801F02CF80022042159486E
:10109C0001F027F800220821564801F022F801221D
:1010AC001021544801F01DF800222021514801F074
:1010BC0018F8002240214F4801F013F87B68062BEA
:1010CC0022D1002201214B4801F00BF80122022110
:1010DC00484801F006F800220421464801F001F8C6
:1010EC0000220821434800F0FCFF00221021414857
:1010FC0000F0F7FF002220213E4800F0F2FF002212
:10110C0040213C4800F0EDFF7B68072B22D10022E8
:10111C000121384800F0E5FF00220221354800F09B
:10112C00E0FF00220421334800F0DBFF01220821FC
:10113C00304800F0D6FF012210212E4800F0D1FFDC
:10114C00012220212B4800F0CCFF0122402129480C
:10115C0000F0C7FF7B68082B22D100220121254813
:10116C0000F0BFFF00220221224800F0BAFF00224B
:10117C000421204800F0B5FF002208211D4800F092
:10118C00B0FF002210211B4800F0ABFF00222021F1
:10119C00184800F0A6FF00224021164800F0A1FFDD
:1011AC007B68092B22D100220121124800F099FF03
:1011BC00002202210F4800F094FF002204210D4868
:1011CC0000F08FFF002208210A4800F08AFF01225C
:1011DC001021084800F085FF00222021054800F06E
:1011EC0080FF00224021034800F07BFF00BF08373E
:1011FC00BD4680BD000C014080B582B000AF786068
:10120C007B68032B00F28C8001A252F823F000BF04
:10121C002D1200086D120008AD120008ED12000826
:10122C0000224FF48071404800F05BFF01224FF424
:10123C0000713D4800F055FF01224FF480613A489F
:10124C0000F04FFF01224FF40061374800F049FFD6
:10125C00364A7B6852F823301846FFF747FE5FE0AA
:10126C0001224FF48071304800F03BFF00224FF414
:10127C0000712D4800F035FF01224FF480612A489F
:10128C0000F02FFF01224FF40061274800F029FFE6
:10129C00264A7B6852F823301846FFF727FE3FE0BA
:1012AC0001224FF48071204800F01BFF01224FF403
:1012BC0000711D4800F015FF00224FF480611A48A0
:1012CC0000F00FFF01224FF40061174800F009FFF6
:1012DC00164A7B6852F823301846FFF707FE1FE0CA
:1012EC0001224FF48071104800F0FBFE01224FF4F4
:1012FC0000710D4800F0F5FE01224FF480610A48A0
:10130C0000F0EFFE00224FF40061074800F0E9FE08
:10131C00064A7B6852F823301846FFF7E7FD00BFFA
:10132C0000BF0837BD4680BD0008014060000020AA
:10133C0080B500AF052000F0C1F90346002B15D095
:10134C00FA21052000F09AF9094B1B681846FFF7A3
:10135C0053FF074B1B680133054A1360044B1B6892
:10136C000422934202DB024B00221A6000BF80BDB4
:10137C00AC00002080B485B000AFF860B9607A6032
:10138C003B60084AFB681360064ABB685360054A19
:10139C007B689360034A3B68D36000BF1437BD463B
:1013AC0080BC70476000002080B582B000AF7860D0
:1013BC007B680A3B0D2B34D801A252F823F000BFF6
:1013CC00051400080B140008111400082F14000851
:1013DC002F1400082F1400082F1400082F140008D5
:1013EC002F1400082F140008171400081D140008EF
:1013FC00231400082914000800F0C8FA12E000F0C9
:10140C00F1FA0FE000F01AFB0CE000F02FFA09E003
:10141C0000F050FA06E000F071FA03E000F092FAE6
:10142C0000E000BF00BF0837BD4680BD80B500AFEF
:10143C0000F056FB00F014F800F09AF800F04CF8AD
:10144C00054801F0ABFA054B01221A60FEF736FF96
:10145C00FFF7FAFAFAE700BFB8000020A800002056
:10146C0080B590B000AF07F1180328220021184670
:10147C0001F044FE3B1D00221A605A609A60DA604B
:10148C001A610223BB610123BB621023FB620023A0
:10149C007B6307F11803184600F054FE0346002B3B
:1014AC0001D000F0E5F80F237B600023BB60002324
:1014BC00FB6000233B6100237B613B1D0021184630
:1014CC0001F0C0F80346002B01D000F0D1F800BFAA
:1014DC004037BD4680BD000080B586B000AF07F137
:1014EC00080300221A605A609A60DA603B460022B8
:1014FC001A605A601D4B4FF080421A601B4B41F62C
:10150C003F725A60194B00229A60184B0922DA601C
:10151C00164B00221A61154B00229A61134801F0F8
:10152C00EDF90346002B01D000F0A2F84FF48053E4
:10153C00BB6007F1080319460C4801F06BFB03462E
:10154C00002B01D000F094F800233B6000237B605B
:10155C003B461946054801F043FD0346002B01D0DC
:10156C0000F086F800BF1837BD4680BDB8000020DB
:10157C0080B588B000AF07F1100300221A605A60E2
:10158C009A60DA602F4B9B692E4A43F010039361EB
:10159C002C4B9B6903F01003FB60FB68294B9B6988
:1015AC00284A43F004039361264B9B6903F0040320
:1015BC00BB60BB68234B9B69224A43F008039361D1
:1015CC00204B9B6903F008037B607B68002240F68C
:1015DC007F711D4800F085FD002243F6FF711B480A
:1015EC0000F07FFD4FF460433B6100237B610123DE
:1015FC00BB6107F110031946154800F0E1FB40F6FA
:10160C007F733B6101237B610023BB610223FB6180
:10161C0007F1100319460C4800F0D2FB43F6FF7398
:10162C003B6101237B610023BB610223FB6107F15A
:10163C0010031946054800F0C3FB00BF2037BD4618
:10164C0080BD00BF0010024000080140000C0140AA
:10165C000010014080B582B000AF786000F048F80F
:10166C00FEF798FDFFF764FE00BF0837BD4680BD4E
:10167C0080B400AF72B600BFFEE7000080B483B048
:10168C0000AF786039603B68094A82FB0312921004
:10169C00DB17D21A07497B6841F82320064A7B687E
:1016AC00002142F8231000BF0C37BD4680BC7047A8
:1016BC0067666666000100202801002080B483B0B4
:1016CC0000AF7860094A7B6852F82330012B06D1B1
:1016DC00064A7B68002142F82310012300E0002316
:1016EC0018460C37BD4680BC704700BF280100204F
:1016FC0080B483B000AF00237B601CE0124A7B688F
:10170C0052F82330002B08DD0F4A7B6852F8233047
:10171C005A1E0D497B6841F823200B4A7B6852F80E
:10172C002330002B04D1094A7B68012142F8231095
:10173C007B6801337B607B68092BDFDD00BF00BF5A
:10174C000C37BD4680BC70470001002028010020EA
:10175C0080B485B000AF154B9B69144A43F001036C
:10176C009361124B9B6903F00103BB60BB680F4B89
:10177C00DB690E4A43F08053D3610C4BDB6903F0F9
:10178C0080537B607B680A4B5B68FB60FB6823F0D3
:10179C00E063FB60FB6843F08063FB60044AFB681A
:1017AC00536000BF1437BD4680BC70470010024028
:1017BC000000014080B584B000AF78607B681B6886
:1017CC00B3F1804F13D10C4BDB690B4A43F001038F
:1017DC00D361094BDB6903F00103FB60FB6800225A
:1017EC0000211C2000F0B5FA1C2000F0CEFA00BF3E
:1017FC001037BD4680BD00BF0010024080B400AF62
:10180C00FEE780B400AFFEE780B400AFFEE780B423
:10181C0000AFFEE780B400AFFEE780B400AF00BFBE
:10182C00BD4680BC704780B400AF00BFBD4680BCD5
:10183C00704780B400AF00BFBD4680BC704780B518
:10184C0000AF00F093F900BF80BD000080B500AF81
:10185C00024801F0EFF800BF80BD00BFB8000020C7
:10186C0080B400AF00BFBD4680BC704780B500AFF0
:10187C00002201210E4800F034FC012204210C4806
:10188C0000F02FFC01220221094800F02AFC002262
:10189C002021074800F025FC01220821044800F013
:1018AC0020FC01221021024800F01BFC00BF80BD6F
:1018BC000008014080B500AF002201210E4800F065
:1018CC0010FC012204210C4800F00BFC0122022127
:1018DC00094800F006FC01222021074800F001FC19
:1018EC0001220821044800F0FCFB002210210248D0
:1018FC0000F0F7FB00BF80BD0008014080B500AFD1
:10190C00012201210E4800F0ECFB002204210C48BE
:10191C0000F0E7FB01220221094800F0E2FB012262
:10192C002021074800F0DDFB00220821044800F0CC
:10193C00D8FB01221021024800F0D3FB00BF80BD70
:10194C000008014080B500AF012201210E4800F0D3
:10195C00C8FB012204210C4800F0C3FB0022022129
:10196C00094800F0BEFB01222021074800F0B9FB1A
:10197C0000220821044800F0B4FB01221021024887
:10198C0000F0AFFB00BF80BD0008014080B500AF88
:10199C000420FFF793FE0346002B1FD0FA210420EE
:1019AC00FFF76CFE01210E4800F0B3FB012204216D
:1019BC000B4800F096FB01220221094800F091FB34
:1019CC0001222021064800F08CFB0821044800F07D
:1019DC00A0FB01221021024800F083FB00BF80BD58
:1019EC000008014080B500AF0420FFF767FE0346F6
:1019FC00002B1FD0FA210420FFF740FE02210E48D5
:101A0C0000F087FB012204210B4800F06AFB012245
:101A1C000121094800F065FB01222021064800F055
:101A2C0060FB1021044800F074FB012208210248DD
:101A3C0000F057FB00BF80BD0008014080B500AF2F
:101A4C000420FFF73BFE0346002B1FD0FA21042095
:101A5C00FFF714FE04210E4800F05BFB012201216C
:101A6C000B4800F03EFB01220221094800F039FB33
:101A7C0001220821064800F034FB2021044800F024
:101A8C0048FB01221021024800F02BFB00BF80BD57
:101A9C0000080140FFF7E4FE0B480C490C4A0023F8
:101AAC0002E0D458C4500433C4188C42F9D3094A08
:101ABC00094C002301E013600432A242FBD301F075
:101ACC00F9FAFFF7B3FC7047000000207C000020FF
:101ADC005C3100087C00002054010020FEE700006F
:101AEC0080B500AF084B1B68074A43F01003136026
:101AFC00032000F023F90F2000F008F8FFF728FE70
:101B0C000023184680BD00BF0020024080B582B083
:101B1C0000AF7860124B1A68124B1B7819464FF4C1
:101B2C007A73B3FBF1F3B2FBF3F3184600F03BF915
:101B3C000346002B01D001230EE07B680F2B0AD843
:101B4C00002279684FF0FF3000F003F9064A7B68F9
:101B5C001360002300E0012318460837BD4680BD02
:101B6C0070000020780000207400002080B400AFCA
:101B7C00054B1B781A46054B1B681344034A13602C
:101B8C0000BFBD4680BC704778000020500100208B
:101B9C0080B400AF024B1B681846BD4680BC704732
:101BAC005001002080B485B000AF78607B6803F0F2
:101BBC000703FB600C4BDB68BB60BA684FF6FF0396
:101BCC001340BB60FB681A02BB68134343F0BF634E
:101BDC0043F40033BB60044ABB68D36000BF1437C6
:101BEC00BD4680BC704700BF00ED00E080B400AF84
:101BFC00044BDB681B0A03F007031846BD4680BC88
:101C0C00704700BF00ED00E080B483B000AF034626
:101C1C00FB7197F90730002B0BDBFB7903F01F02EC
:101C2C00064997F907305B09012000FA02F241F8E6
:101C3C00232000BF0C37BD4680BC704700E100E09C
:101C4C0080B483B000AF03463960FB7197F907305D
:101C5C00002B0ADB3B68DAB20C4997F9073012010A
:101C6C00D2B20B4483F800230AE03B68DAB208498D
:101C7C00FB7903F00F03043B1201D2B20B441A762A
:101C8C0000BF0C37BD4680BC704700BF00E100E0D0
:101C9C0000ED00E080B489B000AFF860B9607A6004
:101CAC00FB6803F00703FB61FB69C3F10703042B1B
:101CBC0028BF0423BB61FB690433062B02D9FB69E3
:101CCC00033B00E000237B614FF0FF32BB6902FA5B
:101CDC0003F3DA43BB681A407B699A404FF0FF313B
:101CEC007B6901FA03F3D9437B680B401343184615
:101CFC002437BD4680BC704780B582B000AF786099
:101D0C007B68013BB3F1807F01D301230FE00A4ACA
:101D1C007B68013B53600F214FF0FF30FFF790FFC2
:101D2C00054B00229A60044B07221A6000231846C8
:101D3C000837BD4680BD00BF10E000E080B582B022
:101D4C0000AF78607868FFF72DFF00BF0837BD46FD
:101D5C0080BD80B586B000AF0346B9607A60FB7376
:101D6C0000237B61FFF742FF78617A68B968786974
:101D7C00FFF790FF024697F90F3011461846FFF710
:101D8C005FFF00BF1837BD4680BD80B582B000AF85
:101D9C000346FB7197F907301846FFF735FF00BF74
:101DAC000837BD4680BD80B582B000AF78607868DA
:101DBC00FFF7A2FF034618460837BD4680BD00005A
:101DCC0080B48BB000AF7860396000237B62002355
:101DDC003B6248E101227B6A02FA03F3FB613B6838
:101DEC001B68FA691340BB61BA69FB699A4240F0FF
:101DFC0037813B685B68A34A93425ED0A14A934209
:101E0C0075D8A14A934258D09F4A93426FD89F4AA3
:101E1C00934252D09D4A934269D89D4A93424CD0EA
:101E2C009B4A934263D89B4A934246D0994A934229
:101E3C005DD8122B2AD8122B59D801A252F823F0B4
:101E4C00C71E0008A11E0008B31E0008F51E0008DE
:101E5C00FB1E0008FB1E0008FB1E0008FB1E0008F2
:101E6C00FB1E0008FB1E0008FB1E0008FB1E0008E2
:101E7C00FB1E0008FB1E0008FB1E0008FB1E0008D2
:101E8C00FB1E0008A91E0008BD1E0008824A9342D2
:101E9C0013D02CE03B68DB683B6229E03B68DB68D5
:101EAC0004333B6224E03B68DB6808333B621FE091
:101EBC003B68DB680C333B621AE03B689B68002B89
:101ECC0002D104233B6213E03B689B68012B05D1D4
:101EDC0008233B627B68FA691A6109E008233B62BC
:101EEC007B68FA695A6103E000233B6200E000BFA3
:101EFC00BB69FF2B01D87B6801E07B6804337B61F5
:101F0C00BB69FF2B02D87B6A9B0002E07B6A083B13
:101F1C009B003B617B691A680F213B6901FA03F353
:101F2C00DB431A40396A3B6901FA03F31A437B69B4
:101F3C001A603B685B6803F08053002B00F09080C4
:101F4C00564B9B69554A43F001039361534B9B6974
:101F5C0003F00103BB60BB68514A7B6A9B080233E8
:101F6C0052F82330FB607B6A03F003039B000F22C3
:101F7C0002FA03F3DB43FA681340FB607B68494ABF
:101F8C0093420DD07B68484A934207D07B68474AFE
:101F9C00934201D1022304E0032302E0012300E079
:101FAC0000237A6A02F0030292009340FA6813430A
:101FBC00FB603B497B6A9B080233FA6841F823209B
:101FCC003B685B6803F48013002B06D0384B9A688F
:101FDC003749BB6913438B6006E0354B9A68BB6984
:101FEC00DB43334913408B603B685B6803F400139D
:101FFC00002B06D02E4BDA682D49BB691343CB60FE
:10200C0006E02B4BDA68BB69DB4329491340CB60F4
:10201C003B685B6803F40033002B06D0244B5A68F2
:10202C002349BB6913434B6006E0214B5A68BB69DB
:10203C00DB431F4913404B603B685B6803F4803300
:10204C00002B06D01A4B1A681949BB6913430B6055
:10205C0006E0174B1A68BB69DB43154913400B604C
:10206C007B6A01337B623B681A687B6A22FA03F352
:10207C00002B7FF4AFAE00BF00BF2C37BD4680BC39
:10208C00704700BF00003210000031100000221019
:10209C00000021100000121000001110001002406E
:1020AC000000014000080140000C014000100140FC
:1020BC000004014080B485B000AF78600B467B8093
:1020CC007B689A687B881340002B02D00123FB733A
:1020DC0001E00023FB73FB7B18461437BD4680BC24
:1020EC00704780B483B000AF78600B467B8013469A
:1020FC007B707B78002B03D07A887B681A6103E0B5
:10210C007B881A047B681A6100BF0C37BD4680BC03
:10211C00704780B485B000AF78600B467B807B68DD
:10212C00DB68FB607A88FB6813401A04FB68D943B0
:10213C007B880B401A437B681A6100BF1437BD467D
:10214C0080BC704780B586B000AF78607B68002B90
:10215C0001D101236CE27B681B6803F00103002BA7
:10216C0000F08780924B5B6803F00C03042B0CD0BF
:10217C008F4B5B6803F00C03082B12D18C4B5B6804
:10218C0003F48033B3F5803F0BD1894B1B6803F408
:10219C000033002B6CD07B685B68002B68D101236B
:1021AC0046E27B685B68B3F5803F06D1804B1B68C9
:1021BC007F4A43F4803313602EE07B685B68002B0E
:1021CC000CD17B4B1B687A4A23F480331360784B19
:1021DC001B68774A23F4802313601DE07B685B68DF
:1021EC00B3F5A02F0CD1724B1B68714A43F48023BA
:1021FC0013606F4B1B686E4A43F4803313600BE023
:10220C006B4B1B686A4A23F480331360684B1B6862
:10221C00674A23F4802313607B685B68002B13D020
:10222C00FFF7B6FC386108E0FFF7B2FC02463B69E9
:10223C00D31A642B01D90323FAE15D4B1B6803F419
:10224C000033002BF0D014E0FFF7A2FC386108E05B
:10225C00FFF79EFC02463B69D31A642B01D903237A
:10226C00E6E1534B1B6803F40033002BF0D100E084
:10227C0000BF7B681B6803F00203002B63D04C4B40
:10228C005B6803F00C03002B0BD0494B5B6803F02D
:10229C000C03082B1CD1464B5B6803F48033002BDA
:1022AC0016D1434B1B6803F00203002B05D07B684F
:1022BC001B69012B01D00123BAE13D4B1B6823F0B4
:1022CC00F8027B685B69DB00394913430B603AE029
:1022DC007B681B69002B20D0364B01221A60FFF75C
:1022EC0057FC386108E0FFF753FC02463B69D31AF0
:1022FC00022B01D903239BE12D4B1B6803F0020336
:10230C00002BF0D02A4B1B6823F0F8027B685B692A
:10231C00DB00274913430B6015E0264B00221A60A3
:10232C00FFF736FC386108E0FFF732FC02463B69E8
:10233C00D31A022B01D903237AE11D4B1B6803F03E
:10234C000203002BF0D17B681B6803F00803002B01
:10235C003AD07B689B69002B19D0174B01221A606D
:10236C00FFF716FC386108E0FFF712FC02463B69E8
:10237C00D31A022B01D903235AE10D4B5B6A03F0EC
:10238C000203002BF0D0012000F09AFA1CE00A4B5B
:10239C0000221A60FFF7FCFB38610FE0FFF7F8FB37
:1023AC0002463B69D31A022B08D9032340E100BF34
:1023BC000010024000004242800442429E4B5B6A85
:1023CC0003F00203002BE9D17B681B6803F00403C4
:1023DC00002B00F0A6800023FB75974BDB6903F004
:1023EC008053002B0DD1944BDB69934A43F08053FF
:1023FC00D361914BDB6903F08053BB60BB68012355
:10240C00FB758E4B1B6803F48073002B18D18B4B20
:10241C001B688A4A43F480731360FFF7B9FB386179
:10242C0008E0FFF7B5FB02463B69D31A642B01D9D0
:10243C000323FDE0814B1B6803F48073002BF0D069
:10244C007B68DB68012B06D17B4B1B6A7A4A43F015
:10245C00010313622DE07B68DB68002B0CD1764BFB
:10246C001B6A754A23F001031362734B1B6A724A91
:10247C0023F0040313621CE07B68DB68052B0CD192
:10248C006D4B1B6A6C4A43F0040313626A4B1B6A64
:10249C00694A43F0010313620BE0674B1B6A664AFF
:1024AC0023F001031362644B1B6A634A23F0040399
:1024BC0013627B68DB68002B15D0FFF769FB386172
:1024CC000AE0FFF765FB02463B69D31A41F28832FA
:1024DC00934201D90323ABE0574B1B6A03F0020371
:1024EC00002BEED014E0FFF753FB38610AE0FFF746
:1024FC004FFB02463B69D31A41F28832934201D911
:10250C00032395E04C4B1B6A03F00203002BEED126
:10251C00FB7D012B05D1484BDB69474A23F08053E7
:10252C00D3617B68DB69002B00F08180424B5B68D8
:10253C0003F00C03082B61D07B68DB69022B46D1BE
:10254C003F4B00221A60FFF723FB386108E0FFF7CE
:10255C001FFB02463B69D31A022B01D9032367E008
:10256C00354B1B6803F00073002BF0D17B681B6AA2
:10257C00B3F5803F08D1304B5B6823F400327B68A5
:10258C009B682D4913434B602B4B5B6823F47412EF
:10259C007B68196A7B685B6A0B43274913434B6062
:1025AC00274B01221A60FFF7F3FA386108E0FFF7B6
:1025BC00EFFA02463B69D31A022B01D9032337E009
:1025CC001D4B1B6803F00073002BF0D02FE01C4B4D
:1025DC0000221A60FFF7DCFA386108E0FFF7D8FA3E
:1025EC0002463B69D31A022B01D9032320E0124B7C
:1025FC001B6803F00073002BF0D118E07B68DB69DB
:10260C00012B01D1012313E00B4B5B68FB60FB68D2
:10261C0003F480327B681B6A9A4206D1FB6803F490
:10262C0070127B685B6A9A4201D0012300E00023A0
:10263C0018461837BD4680BD00100240007000409F
:10264C006000424280B584B000AF786039607B682E
:10265C00002B01D10123D0E06A4B1B6803F0070368
:10266C003A689A4210D9674B1B6823F007026549F8
:10267C003B6813430B60634B1B6803F007033A681A
:10268C009A4201D00123B8E07B681B6803F0020377
:10269C00002B20D07B681B6803F00403002B05D0B3
:1026AC00594B5B68584A43F4E06353607B681B6882
:1026BC0003F00803002B05D0534B5B68524A43F4DC
:1026CC0060535360504B5B6823F0F0027B689B684F
:1026DC004D4913434B607B681B6803F00103002BCF
:1026EC0040D07B685B68012B07D1474B1B6803F418
:1026FC000033002B15D101237FE07B685B68022B34
:10270C0007D1414B1B6803F00073002B09D1012347
:10271C0073E03D4B1B6803F00203002B01D1012336
:10272C006BE0394B5B6823F003027B685B683649CE
:10273C0013434B60FFF72CFAF8600AE0FFF728FA16
:10274C000246FB68D31A41F28832934201D9032323
:10275C0053E02D4B5B6803F00C027B685B689B00BD
:10276C009A42EBD1274B1B6803F007033A689A4255
:10277C0010D2244B1B6823F0070222493B681343F9
:10278C000B60204B1B6803F007033A689A4201D098
:10279C00012332E07B681B6803F00403002B08D094
:1027AC00194B5B6823F4E0627B68DB6816491343C2
:1027BC004B607B681B6803F00803002B09D0124B9D
:1027CC005B6823F460527B681B69DB000E49134382
:1027DC004B6000F021F802460B4B5B681B0903F0C1
:1027EC000F030A49CB5C22FA03F3094A1360094B25
:1027FC001B681846FFF78AF9002318461037BD46A8
:10280C0080BD00BF002002400010024030310008A3
:10281C00700000207400002080B487B000AF00234B
:10282C00FB600023BB6000237B6100237B600023E3
:10283C003B611E4B5B68FB60FB6803F00C03042BD5
:10284C0002D0082B03D027E0194B3B6127E0FB6833
:10285C009B0C03F00F03174AD35C7B60FB6803F4FB
:10286C008033002B10D0114B5B685B0C03F0010321
:10287C00114AD35CBB607B680D4A02FB03F2BB6858
:10288C00B2FBF3F37B6104E07B680C4A02FB03F3BD
:10289C007B617B693B6102E0054B3B6100BF3B699F
:1028AC0018461C37BD4680BC704700BF0010024064
:1028BC0000127A00403100085031000800093D0038
:1028CC0080B485B000AF78600A4B1B680A4AA2FB43
:1028DC0003235B0A7A6802FB03F3FB6000BFFB680F
:1028EC005A1EFA60002BF9D100BF00BF1437BD4649
:1028FC0080BC704770000020D34D621080B582B050
:10290C0000AF78607B68002B01D1012341E07B682C
:10291C0093F83D30DBB2002B06D17B68002283F8A4
:10292C003C207868FEF746FF7B68022283F83D2046
:10293C007B681A687B6804331946104600F056FA17
:10294C007B68012283F846207B68012283F83E20B5
:10295C007B68012283F83F207B68012283F84020AA
:10296C007B68012283F841207B68012283F8422096
:10297C007B68012283F843207B68012283F8442082
:10298C007B68012283F845207B68012283F83D2077
:10299C00002318460837BD4680BD000080B485B0C2
:1029AC0000AF78607B6893F83D30DBB2012B01D02F
:1029BC00012335E07B68022283F83D207B681B688D
:1029CC00DA687B681B6842F00102DA607B681B687E
:1029DC00164A934209D07B681B68B3F1804F04D030
:1029EC007B681B68124A934211D17B681B689B68F9
:1029FC0003F00703FB60FB68062B10D07B681B6899
:102A0C001A687B681B6842F001021A6007E07B6859
:102A1C001B681A687B681B6842F001021A6000236D
:102A2C0018461437BD4680BC704700BF002C0140CF
:102A3C000004004080B584B000AF78607B681B68F0
:102A4C00DB68FB607B681B681B69BB60BB6803F0C1
:102A5C000203002B20D0FB6803F00203002B1BD0D9
:102A6C007B681B686FF002021A617B6801221A777F
:102A7C007B681B689B6903F00303002B03D0786809
:102A8C0000F098F905E0786800F08BF9786800F0B0
:102A9C009AF97B6800221A77BB6803F00403002BB9
:102AAC0020D0FB6803F00403002B1BD07B681B6851
:102ABC006FF004021A617B6802221A777B681B682C
:102ACC009B6903F44073002B03D0786800F072F913
:102ADC0005E0786800F065F9786800F074F97B68B7
:102AEC0000221A77BB6803F00803002B20D0FB6888
:102AFC0003F00803002B1BD07B681B686FF00802E7
:102B0C001A617B6804221A777B681B68DB6903F007
:102B1C000303002B03D0786800F04CF905E07868CB
:102B2C0000F03FF9786800F04EF97B6800221A77C4
:102B3C00BB6803F01003002B20D0FB6803F01003DC
:102B4C00002B1BD07B681B686FF010021A617B682E
:102B5C0008221A777B681B68DB6903F44073002B2F
:102B6C0003D0786800F026F905E0786800F019F9D0
:102B7C00786800F028F97B6800221A77BB6803F0AC
:102B8C000103002B0CD0FB6803F00103002B07D0D2
:102B9C007B681B686FF001021A617868FEF75AFDBA
:102BAC00BB6803F08003002B0CD0FB6803F08003A0
:102BBC00002B07D07B681B686FF080021A61786865
:102BCC0000F06FFABB6803F04003002B0CD0FB68DD
:102BDC0003F04003002B07D07B681B686FF04002AA
:102BEC001A61786800F0F8F8BB6803F02003002B3A
:102BFC000CD0FB6803F02003002B07D07B681B680C
:102C0C006FF020021A61786800F042FA00BF1037AA
:102C1C00BD4680BD80B584B000AF786039600023BC
:102C2C00FB737B6893F83C30012B01D10223B4E099
:102C3C007B68012283F83C207B68022283F83D20CC
:102C4C007B681B689B68BB60BB6823F07703BB6029
:102C5C00BB6823F47F43BB607B681B68BA689A60CF
:102C6C003B681B68B3F5005F3ED0B3F5005F00F224
:102C7C008780B3F5805F00F08680B3F5805F7FD8E6
:102C8C00702B1AD0702B7BD8602B50D0602B77D840
:102C9C00502B3CD0502B73D8402B58D0402B6FD896
:102CAC00302B64D0302B6BD8202B60D0202B67D8E6
:102CBC00002B5CD0102B5AD062E07B6818683B6804
:102CCC0099683B685A683B68DB6800F06AF97B6876
:102CDC001B689B68BB60BB6843F07703BB607B6879
:102CEC001B68BA689A604FE07B6818683B68996803
:102CFC003B685A683B68DB6800F053F97B681B68DB
:102D0C009A687B681B6842F480429A603CE07B685E
:102D1C0018683B6859683B68DB681A4600F0CAF8CB
:102D2C007B681B685021184600F021F92CE07B6869
:102D3C0018683B6859683B68DB681A4600F0E8F88D
:102D4C007B681B686021184600F011F91CE07B6859
:102D5C0018683B6859683B68DB681A4600F0AAF8AB
:102D6C007B681B684021184600F001F90CE07B6879
:102D7C001A683B681B681946104600F0F8F803E027
:102D8C000123FB7300E000BF7B68012283F83D2028
:102D9C007B68002283F83C20FB7B18461037BD462D
:102DAC0080BD80B483B000AF786000BF0C37BD46E7
:102DBC0080BC704780B483B000AF786000BF0C3724
:102DCC00BD4680BC704780B483B000AF786000BF54
:102DDC000C37BD4680BC704780B483B000AF7860C0
:102DEC0000BF0C37BD4680BC7047000080B485B076
:102DFC0000AF786039607B681B68FB607B682B4A8E
:102E0C00934207D07B68B3F1804F03D07B68284A8C
:102E1C00934208D1FB6823F07003FB603B685B684E
:102E2C00FA681343FB607B68204A934207D07B68A7
:102E3C00B3F1804F03D07B681D4A934208D1FB68E5
:102E4C0023F44073FB603B68DB68FA681343FB6058
:102E5C00FB6823F080023B685B691343FB607B6873
:102E6C00FA681A603B689A687B68DA623B681A6891
:102E7C007B689A627B680D4A934203D13B681A695E
:102E8C007B681A637B6801225A617B681B6903F0BB
:102E9C000103002B05D07B681B6923F001027B68C2
:102EAC001A6100BF1437BD4680BC7047002C01402E
:102EBC000004004080B487B000AFF860B9607A605D
:102ECC00FB681B6A7B61FB681B6A23F00102FB68D1
:102EDC001A62FB689B693B613B6923F0F0033B6121
:102EEC007B681B013A6913433B617B6923F00A033E
:102EFC007B617A69BB6813437B61FB683A699A61B1
:102F0C00FB687A691A6200BF1C37BD4680BC7047EB
:102F1C0080B487B000AFF860B9607A60FB681B6A58
:102F2C007B61FB681B6A23F01002FB681A62FB686A
:102F3C009B693B613B6923F470433B617B681B03DA
:102F4C003A6913433B617B6923F0A0037B61BB6847
:102F5C001B017A6913437B61FB683A699A61FB68D0
:102F6C007A691A6200BF1C37BD4680BC704780B4BA
:102F7C0085B000AF786039607B689B68FB60FB684C
:102F8C0023F07003FB603A68FB68134343F00703BC
:102F9C00FB607B68FA689A6000BF1437BD4680BC42
:102FAC00704780B487B000AFF860B9607A603B605E
:102FBC00FB689B687B617B6923F47F437B613B6887
:102FCC001A027B681A43BB6813437A6913437B610B
:102FDC00FB687A699A6000BF1C37BD4680BC70479D
:102FEC0080B485B000AF786039607B6893F83C3072
:102FFC00012B01D1022341E07B68012283F83C20A4
:10300C007B68022283F83D207B681B685B68FB6051
:10301C007B681B689B68BB60FB6823F07003FB60DC
:10302C003B681B68FA681343FB607B681B68FA6893
:10303C005A607B681B68144A934209D07B681B68F2
:10304C00B3F1804F04D07B681B68104A93420CD1BB
:10305C00BB6823F08003BB603B685B68BA681343B2
:10306C00BB607B681B68BA689A607B68012283F836
:10307C003D207B68002283F83C200023184614373F
:10308C00BD4680BC704700BF002C014000040040CE
:10309C0080B483B000AF786000BF0C37BD4680BCF5
:1030AC00704780B483B000AF786000BF0C37BD466A
:1030BC0080BC704770B500260C4D0D4C641BA410E1
:1030CC00A64209D100F022F800260A4D0A4C641BD6
:1030DC00A410A64205D170BD55F8043B98470136A3
:1030EC00EEE755F8043B98470136F2E754310008F7
:1030FC00543100085431000858310008034602448A
:10310C00934200D1704703F8011BF9E7F8B500BFF3
:10311C00F8BC08BC9E467047F8B500BFF8BC08BCAC
:04312C009E46704704
:103130000000000000000000010203040607080967
:1031400002030405060708090A0B0C0D0E0F1010E8
:043150000102000078
:04315400310100083D
:043158000D0100085D
:10315C00010000000100000001000000010000005F
:10316C00010000000100000001000000010000004F
:10317C00010000000100000001000000010000003F
:10318C00C8000000C8000000C800000000200000BB
:10319C0000400000008000000010014000100140C1
:1031AC0000100140050000000200000003000000B8
:1031BC0001000000020000000300000004000000F9
:0C31CC0000127A0010000000010000005A
:0400000508001AA134
:00000001FF
